{
  "contractName": "Allowance",
  "abi": [
    {
      "constant": true,
      "inputs": [
        {
          "name": "",
          "type": "address"
        }
      ],
      "name": "parents",
      "outputs": [
        {
          "name": "id",
          "type": "address"
        },
        {
          "name": "name",
          "type": "string"
        }
      ],
      "payable": false,
      "stateMutability": "view",
      "type": "function"
    },
    {
      "constant": true,
      "inputs": [],
      "name": "taskCounter",
      "outputs": [
        {
          "name": "",
          "type": "uint256"
        }
      ],
      "payable": false,
      "stateMutability": "view",
      "type": "function"
    },
    {
      "constant": true,
      "inputs": [
        {
          "name": "",
          "type": "uint256"
        }
      ],
      "name": "tasks",
      "outputs": [
        {
          "name": "id",
          "type": "uint256"
        },
        {
          "name": "parent",
          "type": "address"
        },
        {
          "name": "reward",
          "type": "uint256"
        },
        {
          "name": "name",
          "type": "string"
        },
        {
          "name": "description",
          "type": "string"
        },
        {
          "name": "completed",
          "type": "bool"
        },
        {
          "name": "approved",
          "type": "bool"
        }
      ],
      "payable": false,
      "stateMutability": "view",
      "type": "function"
    },
    {
      "constant": true,
      "inputs": [],
      "name": "maxTokens",
      "outputs": [
        {
          "name": "",
          "type": "uint256"
        }
      ],
      "payable": false,
      "stateMutability": "view",
      "type": "function"
    },
    {
      "constant": true,
      "inputs": [
        {
          "name": "",
          "type": "address"
        }
      ],
      "name": "children",
      "outputs": [
        {
          "name": "id",
          "type": "address"
        },
        {
          "name": "name",
          "type": "string"
        }
      ],
      "payable": false,
      "stateMutability": "view",
      "type": "function"
    },
    {
      "constant": true,
      "inputs": [],
      "name": "getNumberOfTasks",
      "outputs": [
        {
          "name": "",
          "type": "uint256"
        }
      ],
      "payable": false,
      "stateMutability": "view",
      "type": "function"
    },
    {
      "constant": false,
      "inputs": [
        {
          "name": "_reward",
          "type": "uint256"
        },
        {
          "name": "_name",
          "type": "string"
        },
        {
          "name": "_description",
          "type": "string"
        }
      ],
      "name": "addTask",
      "outputs": [],
      "payable": false,
      "stateMutability": "nonpayable",
      "type": "function"
    },
    {
      "inputs": [],
      "payable": false,
      "stateMutability": "nonpayable",
      "type": "constructor"
    },
    {
      "anonymous": false,
      "inputs": [
        {
          "indexed": true,
          "name": "_id",
          "type": "uint256"
        },
        {
          "indexed": true,
          "name": "_parent",
          "type": "address"
        },
        {
          "indexed": false,
          "name": "_reward",
          "type": "uint256"
        },
        {
          "indexed": false,
          "name": "_name",
          "type": "string"
        }
      ],
      "name": "LogAddTask",
      "type": "event"
    }
  ],
  "bytecode": "0x6060604052341561000f57600080fd5b336000806101000a81548173ffffffffffffffffffffffffffffffffffffffff021916908373ffffffffffffffffffffffffffffffffffffffff160217905550608060058190555061099f806100666000396000f300606060405260043610610083576000357c0100000000000000000000000000000000000000000000000000000000900463ffffffff16806318b13fb214610088578063586717301461018a5780638d977672146101b3578063e83157421461034c578063f0018da714610375578063f6397fd314610477578063fb8820c2146104a0575b600080fd5b341561009357600080fd5b6100bf600480803573ffffffffffffffffffffffffffffffffffffffff16906020019091905050610549565b604051808373ffffffffffffffffffffffffffffffffffffffff1673ffffffffffffffffffffffffffffffffffffffff1681526020018060200182810382528381815460018160011615610100020316600290048152602001915080546001816001161561010002031660029004801561017a5780601f1061014f5761010080835404028352916020019161017a565b820191906000526020600020905b81548152906001019060200180831161015d57829003601f168201915b5050935050505060405180910390f35b341561019557600080fd5b61019d61058c565b6040518082815260200191505060405180910390f35b34156101be57600080fd5b6101d46004808035906020019091905050610592565b604051808881526020018773ffffffffffffffffffffffffffffffffffffffff1673ffffffffffffffffffffffffffffffffffffffff168152602001868152602001806020018060200185151515158152602001841515151581526020018381038352878181546001816001161561010002031660029004815260200191508054600181600116156101000203166002900480156102b35780601f10610288576101008083540402835291602001916102b3565b820191906000526020600020905b81548152906001019060200180831161029657829003601f168201915b50508381038252868181546001816001161561010002031660029004815260200191508054600181600116156101000203166002900480156103365780601f1061030b57610100808354040283529160200191610336565b820191906000526020600020905b81548152906001019060200180831161031957829003601f168201915b5050995050505050505050505060405180910390f35b341561035757600080fd5b61035f61060c565b6040518082815260200191505060405180910390f35b341561038057600080fd5b6103ac600480803573ffffffffffffffffffffffffffffffffffffffff16906020019091905050610612565b604051808373ffffffffffffffffffffffffffffffffffffffff1673ffffffffffffffffffffffffffffffffffffffff168152602001806020018281038252838181546001816001161561010002031660029004815260200191508054600181600116156101000203166002900480156104675780601f1061043c57610100808354040283529160200191610467565b820191906000526020600020905b81548152906001019060200180831161044a57829003601f168201915b5050935050505060405180910390f35b341561048257600080fd5b61048a610655565b6040518082815260200191505060405180910390f35b34156104ab57600080fd5b610547600480803590602001909190803590602001908201803590602001908080601f0160208091040260200160405190810160405280939291908181526020018383808284378201915050505050509190803590602001908201803590602001908080601f0160208091040260200160405190810160405280939291908181526020018383808284378201915050505050509190505061065f565b005b60016020528060005260406000206000915090508060000160009054906101000a900473ffffffffffffffffffffffffffffffffffffffff169080600101905082565b60045481565b60036020528060005260406000206000915090508060000154908060010160009054906101000a900473ffffffffffffffffffffffffffffffffffffffff1690806002015490806003019080600401908060050160009054906101000a900460ff16908060050160019054906101000a900460ff16905087565b60055481565b60026020528060005260406000206000915090508060000160009054906101000a900473ffffffffffffffffffffffffffffffffffffffff169080600101905082565b6000600454905090565b6004600081548092919060010191905055503373ffffffffffffffffffffffffffffffffffffffff166000809054906101000a900473ffffffffffffffffffffffffffffffffffffffff1673ffffffffffffffffffffffffffffffffffffffff161415156106cc57600080fd5b60e06040519081016040528060045481526020013373ffffffffffffffffffffffffffffffffffffffff168152602001848152602001838152602001828152602001600015158152602001600015158152506003600060045481526020019081526020016000206000820151816000015560208201518160010160006101000a81548173ffffffffffffffffffffffffffffffffffffffff021916908373ffffffffffffffffffffffffffffffffffffffff1602179055506040820151816002015560608201518160030190805190602001906107aa9291906108ce565b5060808201518160040190805190602001906107c79291906108ce565b5060a08201518160050160006101000a81548160ff02191690831515021790555060c08201518160050160016101000a81548160ff0219169083151502179055509050503373ffffffffffffffffffffffffffffffffffffffff166004547f1aa30f80616de71c91eb2a3db42d1bcfd3a40e422aebeef121f94bdc6f49c66085856040518083815260200180602001828103825283818151815260200191508051906020019080838360005b8381101561088e578082015181840152602081019050610873565b50505050905090810190601f1680156108bb5780820380516001836020036101000a031916815260200191505b50935050505060405180910390a3505050565b828054600181600116156101000203166002900490600052602060002090601f016020900481019282601f1061090f57805160ff191683800117855561093d565b8280016001018555821561093d579182015b8281111561093c578251825591602001919060010190610921565b5b50905061094a919061094e565b5090565b61097091905b8082111561096c576000816000905550600101610954565b5090565b905600a165627a7a72305820327ad3bd8c10217946cb2d4915f4de34e1ed3f9b90a2a49f88c6901d2711dfd60029",
  "source": "pragma solidity 0.4.18;\n\n\ncontract Allowance {\n\n    address owner;\n\n    // Parents section\n    struct Parent {\n        address id;\n        string name;\n    }\n\n    mapping (address => Parent) public parents;\n\n    // Child section\n    struct Child {\n        address id;\n        string name;\n    }\n\n    mapping (address => Child) public children;\n\n    // Task section\n    struct Task {\n        uint id;\n        address parent;\n        uint reward;\n        string name;\n        string description;\n        bool completed;\n        bool approved;\n    }\n\n    mapping (uint => Task) public tasks;\n    uint public taskCounter;\n\n    uint256 public maxTokens;\n\n    // Constructor\n    function Allowance() public {\n        owner = msg.sender;\n        maxTokens = 128;\n    }\n\n    // Steps:\n    //  1) Create a pool of tokens for the parent to dole out\n    //  2) Allow parent to create a  list of tasks that child may complete to earn token\n    //   a) Create single tasks\n    //   b) creating recurring tasks\n    //  3) Allow child to mark a task as completed\n    //  4) A parent may verify that a task is completed\n    //  5) Upon agreed-upon completion, token is transferred to child's account\n    //  6) Child may redeem tokens to earn cash, screen time, etc.\n    //  7) Upon redemption, tokens are sent back to parent\n    // Events\n    event LogAddTask(\n        uint indexed _id,\n        address indexed _parent,\n        uint _reward,\n        string _name\n    );\n\n    // Create a new task\n    function addTask(uint _reward, string _name, string _description) public {\n        taskCounter++;\n\n        // TODO: Need to require that the msg.sender is a parent\n        require(owner == msg.sender);\n\n        tasks[taskCounter] = Task(\n            taskCounter,    // ID\n            msg.sender,     // Parent\n            _reward,        // Reward\n            _name,          // Name\n            _description,   // Description\n            false,          // Completed\n            false           // Approved\n        );\n\n        LogAddTask(taskCounter, msg.sender, _reward, _name);\n    }\n\n    // Get number of tasks\n    function getNumberOfTasks() public view returns (uint) {\n        return taskCounter;\n    }\n\n    // Add a new parent -- second, third etc\n    // First parent should come from contract creations / msg.sender in constructor\n    // function addParent(address _parent) public {\n    //     parent = _parent;\n    // }\n\n    // Add a new child\n    // function addChild(address _child) public {\n    //     child = _child;\n    // }\n\n    // function markTaskCompleted() public {\n    //     taskCompleted = true;\n    // }\n}",
  "sourcePath": "/Users/steven/Code/jacksinn/allowance/contracts/Allowance.sol",
  "compiler": {
    "name": "solc",
    "version": "0.4.18+commit.9cf6e910.Emscripten.clang"
  },
  "schemaVersion": "1.0.1",
  "updatedAt": "2018-05-10T22:07:27.306Z"
}