{
  "contractName": "Allowance",
  "abi": [
    {
      "constant": true,
      "inputs": [
        {
          "name": "",
          "type": "address"
        }
      ],
      "name": "parents",
      "outputs": [
        {
          "name": "id",
          "type": "address"
        },
        {
          "name": "name",
          "type": "string"
        }
      ],
      "payable": false,
      "stateMutability": "view",
      "type": "function"
    },
    {
      "constant": false,
      "inputs": [
        {
          "name": "_parent",
          "type": "address"
        },
        {
          "name": "_name",
          "type": "string"
        }
      ],
      "name": "addParent",
      "outputs": [],
      "payable": false,
      "stateMutability": "nonpayable",
      "type": "function"
    },
    {
      "constant": true,
      "inputs": [],
      "name": "getAvailableTasks",
      "outputs": [
        {
          "name": "",
          "type": "uint256[]"
        }
      ],
      "payable": false,
      "stateMutability": "view",
      "type": "function"
    },
    {
      "constant": true,
      "inputs": [],
      "name": "taskCounter",
      "outputs": [
        {
          "name": "",
          "type": "uint256"
        }
      ],
      "payable": false,
      "stateMutability": "view",
      "type": "function"
    },
    {
      "constant": true,
      "inputs": [
        {
          "name": "",
          "type": "uint256"
        }
      ],
      "name": "tasks",
      "outputs": [
        {
          "name": "id",
          "type": "uint256"
        },
        {
          "name": "parent",
          "type": "address"
        },
        {
          "name": "reward",
          "type": "uint256"
        },
        {
          "name": "name",
          "type": "string"
        },
        {
          "name": "description",
          "type": "string"
        },
        {
          "name": "completed",
          "type": "bool"
        },
        {
          "name": "approved",
          "type": "bool"
        }
      ],
      "payable": false,
      "stateMutability": "view",
      "type": "function"
    },
    {
      "constant": true,
      "inputs": [],
      "name": "maxTokens",
      "outputs": [
        {
          "name": "",
          "type": "uint256"
        }
      ],
      "payable": false,
      "stateMutability": "view",
      "type": "function"
    },
    {
      "constant": true,
      "inputs": [
        {
          "name": "",
          "type": "address"
        }
      ],
      "name": "children",
      "outputs": [
        {
          "name": "id",
          "type": "address"
        },
        {
          "name": "name",
          "type": "string"
        },
        {
          "name": "balance",
          "type": "uint256"
        }
      ],
      "payable": false,
      "stateMutability": "view",
      "type": "function"
    },
    {
      "constant": true,
      "inputs": [],
      "name": "getNumberOfTasks",
      "outputs": [
        {
          "name": "",
          "type": "uint256"
        }
      ],
      "payable": false,
      "stateMutability": "view",
      "type": "function"
    },
    {
      "constant": false,
      "inputs": [
        {
          "name": "_reward",
          "type": "uint256"
        },
        {
          "name": "_name",
          "type": "string"
        },
        {
          "name": "_description",
          "type": "string"
        }
      ],
      "name": "addTask",
      "outputs": [],
      "payable": false,
      "stateMutability": "nonpayable",
      "type": "function"
    },
    {
      "inputs": [],
      "payable": false,
      "stateMutability": "nonpayable",
      "type": "constructor"
    },
    {
      "anonymous": false,
      "inputs": [
        {
          "indexed": true,
          "name": "_id",
          "type": "uint256"
        },
        {
          "indexed": true,
          "name": "_parent",
          "type": "address"
        },
        {
          "indexed": false,
          "name": "_reward",
          "type": "uint256"
        },
        {
          "indexed": false,
          "name": "_name",
          "type": "string"
        }
      ],
      "name": "LogAddTask",
      "type": "event"
    },
    {
      "anonymous": false,
      "inputs": [
        {
          "indexed": true,
          "name": "_parent",
          "type": "address"
        },
        {
          "indexed": false,
          "name": "_name",
          "type": "string"
        }
      ],
      "name": "LogAddParent",
      "type": "event"
    }
  ],
  "bytecode": "0x6060604052341561000f57600080fd5b336000806101000a81548173ffffffffffffffffffffffffffffffffffffffff021916908373ffffffffffffffffffffffffffffffffffffffff1602179055506080600581905550610d8b806100666000396000f300606060405260043610610099576000357c0100000000000000000000000000000000000000000000000000000000900463ffffffff16806318b13fb21461009e5780631aa9c807146101a0578063340734e91461021c57806358671730146102865780638d977672146102af578063e831574214610448578063f0018da714610471578063f6397fd31461057a578063fb8820c2146105a3575b600080fd5b34156100a957600080fd5b6100d5600480803573ffffffffffffffffffffffffffffffffffffffff1690602001909190505061064c565b604051808373ffffffffffffffffffffffffffffffffffffffff1673ffffffffffffffffffffffffffffffffffffffff168152602001806020018281038252838181546001816001161561010002031660029004815260200191508054600181600116156101000203166002900480156101905780601f1061016557610100808354040283529160200191610190565b820191906000526020600020905b81548152906001019060200180831161017357829003601f168201915b5050935050505060405180910390f35b34156101ab57600080fd5b61021a600480803573ffffffffffffffffffffffffffffffffffffffff1690602001909190803590602001908201803590602001908080601f0160208091040260200160405190810160405280939291908181526020018383808284378201915050505050509190505061068f565b005b341561022757600080fd5b61022f610817565b6040518080602001828103825283818151815260200191508051906020019060200280838360005b83811015610272578082015181840152602081019050610257565b505050509050019250505060405180910390f35b341561029157600080fd5b61029961095e565b6040518082815260200191505060405180910390f35b34156102ba57600080fd5b6102d06004808035906020019091905050610964565b604051808881526020018773ffffffffffffffffffffffffffffffffffffffff1673ffffffffffffffffffffffffffffffffffffffff168152602001868152602001806020018060200185151515158152602001841515151581526020018381038352878181546001816001161561010002031660029004815260200191508054600181600116156101000203166002900480156103af5780601f10610384576101008083540402835291602001916103af565b820191906000526020600020905b81548152906001019060200180831161039257829003601f168201915b50508381038252868181546001816001161561010002031660029004815260200191508054600181600116156101000203166002900480156104325780601f1061040757610100808354040283529160200191610432565b820191906000526020600020905b81548152906001019060200180831161041557829003601f168201915b5050995050505050505050505060405180910390f35b341561045357600080fd5b61045b6109de565b6040518082815260200191505060405180910390f35b341561047c57600080fd5b6104a8600480803573ffffffffffffffffffffffffffffffffffffffff169060200190919050506109e4565b604051808473ffffffffffffffffffffffffffffffffffffffff1673ffffffffffffffffffffffffffffffffffffffff168152602001806020018381526020018281038252848181546001816001161561010002031660029004815260200191508054600181600116156101000203166002900480156105695780601f1061053e57610100808354040283529160200191610569565b820191906000526020600020905b81548152906001019060200180831161054c57829003601f168201915b505094505050505060405180910390f35b341561058557600080fd5b61058d610a2d565b6040518082815260200191505060405180910390f35b34156105ae57600080fd5b61064a600480803590602001909190803590602001908201803590602001908080601f0160208091040260200160405190810160405280939291908181526020018383808284378201915050505050509190803590602001908201803590602001908080601f01602080910402602001604051908101604052809392919081815260200183838082843782019150505050505091905050610a37565b005b60016020528060005260406000206000915090508060000160009054906101000a900473ffffffffffffffffffffffffffffffffffffffff169080600101905082565b60408051908101604052808373ffffffffffffffffffffffffffffffffffffffff16815260200182815250600160003373ffffffffffffffffffffffffffffffffffffffff1673ffffffffffffffffffffffffffffffffffffffff16815260200190815260200160002060008201518160000160006101000a81548173ffffffffffffffffffffffffffffffffffffffff021916908373ffffffffffffffffffffffffffffffffffffffff160217905550602082015181600101908051906020019061075c929190610ca6565b509050508173ffffffffffffffffffffffffffffffffffffffff167f30cb7e14e2c85c589e71d33c1bfc8f63c02913537ea6b1a63e85e7be916cbf83826040518080602001828103825283818151815260200191508051906020019080838360005b838110156107d95780820151818401526020810190506107be565b50505050905090810190601f1680156108065780820380516001836020036101000a031916815260200191505b509250505060405180910390a25050565b61081f610d26565b610827610d26565b600080610832610d26565b60006004546040518059106108445750595b9080825280602002602001820160405250945060009350600192505b600454831115156108e457600015156003600085815260200190815260200160002060050160009054906101000a900460ff16151514156108d757600360008481526020019081526020016000206000015485858151811015156108c057fe5b906020019060200201818152505083806001019450505b8280600101935050610860565b836040518059106108f25750595b90808252806020026020018201604052509150600090505b8381101561095357848181518110151561092057fe5b90602001906020020151828281518110151561093857fe5b9060200190602002018181525050808060010191505061090a565b819550505050505090565b60045481565b60036020528060005260406000206000915090508060000154908060010160009054906101000a900473ffffffffffffffffffffffffffffffffffffffff1690806002015490806003019080600401908060050160009054906101000a900460ff16908060050160019054906101000a900460ff16905087565b60055481565b60026020528060005260406000206000915090508060000160009054906101000a900473ffffffffffffffffffffffffffffffffffffffff169080600101908060020154905083565b6000600454905090565b6004600081548092919060010191905055503373ffffffffffffffffffffffffffffffffffffffff166000809054906101000a900473ffffffffffffffffffffffffffffffffffffffff1673ffffffffffffffffffffffffffffffffffffffff16141515610aa457600080fd5b60e06040519081016040528060045481526020013373ffffffffffffffffffffffffffffffffffffffff168152602001848152602001838152602001828152602001600015158152602001600015158152506003600060045481526020019081526020016000206000820151816000015560208201518160010160006101000a81548173ffffffffffffffffffffffffffffffffffffffff021916908373ffffffffffffffffffffffffffffffffffffffff160217905550604082015181600201556060820151816003019080519060200190610b82929190610ca6565b506080820151816004019080519060200190610b9f929190610ca6565b5060a08201518160050160006101000a81548160ff02191690831515021790555060c08201518160050160016101000a81548160ff0219169083151502179055509050503373ffffffffffffffffffffffffffffffffffffffff166004547f1aa30f80616de71c91eb2a3db42d1bcfd3a40e422aebeef121f94bdc6f49c66085856040518083815260200180602001828103825283818151815260200191508051906020019080838360005b83811015610c66578082015181840152602081019050610c4b565b50505050905090810190601f168015610c935780820380516001836020036101000a031916815260200191505b50935050505060405180910390a3505050565b828054600181600116156101000203166002900490600052602060002090601f016020900481019282601f10610ce757805160ff1916838001178555610d15565b82800160010185558215610d15579182015b82811115610d14578251825591602001919060010190610cf9565b5b509050610d229190610d3a565b5090565b602060405190810160405280600081525090565b610d5c91905b80821115610d58576000816000905550600101610d40565b5090565b905600a165627a7a723058208b7d7f8e0e1e7ec37e1d8499238b0d6e12394f26d26ac755db3f15ef025d7fa90029",
  "source": "pragma solidity 0.4.18;\n\n\ncontract Allowance {\n\n    address owner;\n\n    // Parents section\n    struct Parent {\n        address id;\n        string name;\n    }\n\n    mapping (address => Parent) public parents;\n\n    // Child section\n    struct Child {\n        address id;\n        string name;\n        uint balance;\n    }\n\n    mapping (address => Child) public children;\n\n    // Task section\n    struct Task {\n        uint id;\n        address parent;\n        uint reward;\n        string name;\n        string description;\n        bool completed;\n        bool approved;\n    }\n\n    mapping (uint => Task) public tasks;\n    uint public taskCounter;\n\n    uint256 public maxTokens;\n\n    // Constructor\n    function Allowance() public {\n        owner = msg.sender;\n        maxTokens = 128;\n    }\n\n    // Steps:\n    //  1) Create a pool of tokens for the parent to dole out\n    //  2) Allow parent to create a  list of tasks that child may complete to earn token\n    //   a) Create single tasks\n    //   b) creating recurring tasks\n    //  3) Allow child to mark a task as completed\n    //  4) A parent may verify that a task is completed\n    //  5) Upon agreed-upon completion, token is transferred to child's account\n    //  6) Child may redeem tokens to earn cash, screen time, etc.\n    //  7) Upon redemption, tokens are sent back to parent\n    // Events\n    event LogAddTask(\n        uint indexed _id,\n        address indexed _parent,\n        uint _reward,\n        string _name\n    );\n\n    event LogAddParent(\n        address indexed _parent,\n        string _name\n    );\n\n    // Create a new task\n    function addTask(uint _reward, string _name, string _description) public {\n        taskCounter++;\n\n        // TODO: Need to require that the msg.sender is a parent\n        require(owner == msg.sender);\n\n        tasks[taskCounter] = Task(\n            taskCounter,    // ID\n            msg.sender,     // Parent\n            _reward,        // Reward\n            _name,          // Name\n            _description,   // Description\n            false,          // Completed\n            false           // Approved\n        );\n\n        LogAddTask(taskCounter, msg.sender, _reward, _name);\n    }\n\n    // Get number of tasks\n    function getNumberOfTasks() public view returns (uint) {\n        return taskCounter;\n    }\n\n    // Getting tasks that are available\n    function getAvailableTasks() public view returns (uint[]) {\n        // Setup initial vars\n        uint[] memory taskIDs = new uint[](taskCounter);\n        uint numberOfAvailableTasks = 0;\n\n        // Copy over the Taks IDs if the task is still available \n        //  and increment number of available takss\n        for (uint i = 1; i <= taskCounter; i++) {\n            if (tasks[i].completed == false) {\n                taskIDs[numberOfAvailableTasks] = tasks[i].id;\n                numberOfAvailableTasks++;\n            }\n        }\n\n        // Create an appropriate sized array to return\n        uint[] memory available = new uint[](numberOfAvailableTasks);\n        for (uint j = 0; j < numberOfAvailableTasks; j++) {\n            available[j] = taskIDs[j];\n        }\n\n        return available;\n    }\n\n    // Adding a parent\n    function addParent(address _parent, string _name) public {\n        parents[msg.sender] = Parent(\n            _parent,\n            _name\n        );\n        LogAddParent(_parent, _name);\n    }\n\n    // Add a new parent -- second, third etc\n    // First parent should come from contract creations / msg.sender in constructor\n    // function addParent(address _parent) public {\n    //     parent = _parent;\n    // }\n\n    // Add a new child\n    // function addChild(address _child) public {\n    //     child = _child;\n    // }\n\n    // function markTaskCompleted() public {\n    //     taskCompleted = true;\n    // }\n}",
  "sourcePath": "/mnt/c/Users/scjac/Code/github.com/jacksinn/tender_dapp/contracts/Allowance.sol",
  "compiler": {
    "name": "solc",
    "version": "0.4.18+commit.9cf6e910.Emscripten.clang"
  },
  "schemaVersion": "1.0.1",
  "updatedAt": "2018-05-11T02:49:26.078Z"
}