{
  "contractName": "Allowance",
  "abi": [
    {
      "constant": false,
      "inputs": [
        {
          "name": "id",
          "type": "uint256"
        }
      ],
      "name": "markTaskCompleted",
      "outputs": [],
      "payable": false,
      "stateMutability": "nonpayable",
      "type": "function"
    },
    {
      "constant": false,
      "inputs": [
        {
          "name": "_child",
          "type": "address"
        },
        {
          "name": "_name",
          "type": "string"
        }
      ],
      "name": "addChild",
      "outputs": [],
      "payable": false,
      "stateMutability": "nonpayable",
      "type": "function"
    },
    {
      "constant": true,
      "inputs": [
        {
          "name": "",
          "type": "address"
        }
      ],
      "name": "parents",
      "outputs": [
        {
          "name": "id",
          "type": "address"
        },
        {
          "name": "name",
          "type": "string"
        }
      ],
      "payable": false,
      "stateMutability": "view",
      "type": "function"
    },
    {
      "constant": false,
      "inputs": [
        {
          "name": "_parent",
          "type": "address"
        },
        {
          "name": "_name",
          "type": "string"
        }
      ],
      "name": "addParent",
      "outputs": [],
      "payable": false,
      "stateMutability": "nonpayable",
      "type": "function"
    },
    {
      "constant": true,
      "inputs": [],
      "name": "getAvailableTasks",
      "outputs": [
        {
          "name": "",
          "type": "uint256[]"
        }
      ],
      "payable": false,
      "stateMutability": "view",
      "type": "function"
    },
    {
      "constant": true,
      "inputs": [],
      "name": "taskCounter",
      "outputs": [
        {
          "name": "",
          "type": "uint256"
        }
      ],
      "payable": false,
      "stateMutability": "view",
      "type": "function"
    },
    {
      "constant": true,
      "inputs": [
        {
          "name": "",
          "type": "uint256"
        }
      ],
      "name": "tasks",
      "outputs": [
        {
          "name": "id",
          "type": "uint256"
        },
        {
          "name": "parent",
          "type": "address"
        },
        {
          "name": "reward",
          "type": "uint256"
        },
        {
          "name": "name",
          "type": "string"
        },
        {
          "name": "description",
          "type": "string"
        },
        {
          "name": "completed",
          "type": "bool"
        },
        {
          "name": "approved",
          "type": "bool"
        }
      ],
      "payable": false,
      "stateMutability": "view",
      "type": "function"
    },
    {
      "constant": true,
      "inputs": [],
      "name": "maxTokens",
      "outputs": [
        {
          "name": "",
          "type": "uint256"
        }
      ],
      "payable": false,
      "stateMutability": "view",
      "type": "function"
    },
    {
      "constant": true,
      "inputs": [
        {
          "name": "",
          "type": "address"
        }
      ],
      "name": "children",
      "outputs": [
        {
          "name": "id",
          "type": "address"
        },
        {
          "name": "name",
          "type": "string"
        },
        {
          "name": "balance",
          "type": "uint256"
        }
      ],
      "payable": false,
      "stateMutability": "view",
      "type": "function"
    },
    {
      "constant": true,
      "inputs": [],
      "name": "getNumberOfTasks",
      "outputs": [
        {
          "name": "",
          "type": "uint256"
        }
      ],
      "payable": false,
      "stateMutability": "view",
      "type": "function"
    },
    {
      "constant": false,
      "inputs": [
        {
          "name": "_reward",
          "type": "uint256"
        },
        {
          "name": "_name",
          "type": "string"
        },
        {
          "name": "_description",
          "type": "string"
        }
      ],
      "name": "addTask",
      "outputs": [],
      "payable": false,
      "stateMutability": "nonpayable",
      "type": "function"
    },
    {
      "inputs": [],
      "payable": false,
      "stateMutability": "nonpayable",
      "type": "constructor"
    },
    {
      "anonymous": false,
      "inputs": [
        {
          "indexed": true,
          "name": "_id",
          "type": "uint256"
        },
        {
          "indexed": true,
          "name": "_parent",
          "type": "address"
        },
        {
          "indexed": false,
          "name": "_reward",
          "type": "uint256"
        },
        {
          "indexed": false,
          "name": "_name",
          "type": "string"
        }
      ],
      "name": "LogAddTask",
      "type": "event"
    },
    {
      "anonymous": false,
      "inputs": [
        {
          "indexed": true,
          "name": "_parent",
          "type": "address"
        },
        {
          "indexed": false,
          "name": "_name",
          "type": "string"
        }
      ],
      "name": "LogAddParent",
      "type": "event"
    },
    {
      "anonymous": false,
      "inputs": [
        {
          "indexed": true,
          "name": "_child",
          "type": "address"
        },
        {
          "indexed": false,
          "name": "_name",
          "type": "string"
        }
      ],
      "name": "LogAddChild",
      "type": "event"
    }
  ],
  "bytecode": "0x6060604052341561000f57600080fd5b336000806101000a81548173ffffffffffffffffffffffffffffffffffffffff021916908373ffffffffffffffffffffffffffffffffffffffff160217905550608060058190555061111c806100666000396000f3006060604052600436106100ae576000357c0100000000000000000000000000000000000000000000000000000000900463ffffffff1680620b2bda146100b35780630ae5fe5b146100d657806318b13fb2146101525780631aa9c80714610254578063340734e9146102d0578063586717301461033a5780638d97767214610363578063e8315742146104fc578063f0018da714610525578063f6397fd31461062e578063fb8820c214610657575b600080fd5b34156100be57600080fd5b6100d46004808035906020019091905050610700565b005b34156100e157600080fd5b610150600480803573ffffffffffffffffffffffffffffffffffffffff1690602001909190803590602001908201803590602001908080601f0160208091040260200160405190810160405280939291908181526020018383808284378201915050505050509190505061078d565b005b341561015d57600080fd5b610189600480803573ffffffffffffffffffffffffffffffffffffffff16906020019091905050610982565b604051808373ffffffffffffffffffffffffffffffffffffffff1673ffffffffffffffffffffffffffffffffffffffff168152602001806020018281038252838181546001816001161561010002031660029004815260200191508054600181600116156101000203166002900480156102445780601f1061021957610100808354040283529160200191610244565b820191906000526020600020905b81548152906001019060200180831161022757829003601f168201915b5050935050505060405180910390f35b341561025f57600080fd5b6102ce600480803573ffffffffffffffffffffffffffffffffffffffff1690602001909190803590602001908201803590602001908080601f016020809104026020016040519081016040528093929190818152602001838380828437820191505050505050919050506109c5565b005b34156102db57600080fd5b6102e3610ba8565b6040518080602001828103825283818151815260200191508051906020019060200280838360005b8381101561032657808201518184015260208101905061030b565b505050509050019250505060405180910390f35b341561034557600080fd5b61034d610cef565b6040518082815260200191505060405180910390f35b341561036e57600080fd5b6103846004808035906020019091905050610cf5565b604051808881526020018773ffffffffffffffffffffffffffffffffffffffff1673ffffffffffffffffffffffffffffffffffffffff168152602001868152602001806020018060200185151515158152602001841515151581526020018381038352878181546001816001161561010002031660029004815260200191508054600181600116156101000203166002900480156104635780601f1061043857610100808354040283529160200191610463565b820191906000526020600020905b81548152906001019060200180831161044657829003601f168201915b50508381038252868181546001816001161561010002031660029004815260200191508054600181600116156101000203166002900480156104e65780601f106104bb576101008083540402835291602001916104e6565b820191906000526020600020905b8154815290600101906020018083116104c957829003601f168201915b5050995050505050505050505060405180910390f35b341561050757600080fd5b61050f610d6f565b6040518082815260200191505060405180910390f35b341561053057600080fd5b61055c600480803573ffffffffffffffffffffffffffffffffffffffff16906020019091905050610d75565b604051808473ffffffffffffffffffffffffffffffffffffffff1673ffffffffffffffffffffffffffffffffffffffff1681526020018060200183815260200182810382528481815460018160011615610100020316600290048152602001915080546001816001161561010002031660029004801561061d5780601f106105f25761010080835404028352916020019161061d565b820191906000526020600020905b81548152906001019060200180831161060057829003601f168201915b505094505050505060405180910390f35b341561063957600080fd5b610641610dbe565b6040518082815260200191505060405180910390f35b341561066257600080fd5b6106fe600480803590602001909190803590602001908201803590602001908080601f0160208091040260200160405190810160405280939291908181526020018383808284378201915050505050509190803590602001908201803590602001908080601f01602080910402602001604051908101604052809392919081815260200183838082843782019150505050505091905050610dc8565b005b6000809054906101000a900473ffffffffffffffffffffffffffffffffffffffff1673ffffffffffffffffffffffffffffffffffffffff163373ffffffffffffffffffffffffffffffffffffffff1614151561075b57600080fd5b60016003600083815260200190815260200160002060050160006101000a81548160ff02191690831515021790555050565b6000809054906101000a900473ffffffffffffffffffffffffffffffffffffffff1673ffffffffffffffffffffffffffffffffffffffff163373ffffffffffffffffffffffffffffffffffffffff161415156107e857600080fd5b6060604051908101604052808373ffffffffffffffffffffffffffffffffffffffff1681526020018281526020016000815250600260008473ffffffffffffffffffffffffffffffffffffffff1673ffffffffffffffffffffffffffffffffffffffff16815260200190815260200160002060008201518160000160006101000a81548173ffffffffffffffffffffffffffffffffffffffff021916908373ffffffffffffffffffffffffffffffffffffffff16021790555060208201518160010190805190602001906108bd929190611037565b50604082015181600201559050508173ffffffffffffffffffffffffffffffffffffffff167f844da71335dbbe80df4d8cfda32a955e3d19842900f575e4fa93dd15260fa05d826040518080602001828103825283818151815260200191508051906020019080838360005b83811015610944578082015181840152602081019050610929565b50505050905090810190601f1680156109715780820380516001836020036101000a031916815260200191505b509250505060405180910390a25050565b60016020528060005260406000206000915090508060000160009054906101000a900473ffffffffffffffffffffffffffffffffffffffff169080600101905082565b6000809054906101000a900473ffffffffffffffffffffffffffffffffffffffff1673ffffffffffffffffffffffffffffffffffffffff163373ffffffffffffffffffffffffffffffffffffffff16141515610a2057600080fd5b60408051908101604052808373ffffffffffffffffffffffffffffffffffffffff16815260200182815250600160008473ffffffffffffffffffffffffffffffffffffffff1673ffffffffffffffffffffffffffffffffffffffff16815260200190815260200160002060008201518160000160006101000a81548173ffffffffffffffffffffffffffffffffffffffff021916908373ffffffffffffffffffffffffffffffffffffffff1602179055506020820151816001019080519060200190610aed929190611037565b509050508173ffffffffffffffffffffffffffffffffffffffff167f30cb7e14e2c85c589e71d33c1bfc8f63c02913537ea6b1a63e85e7be916cbf83826040518080602001828103825283818151815260200191508051906020019080838360005b83811015610b6a578082015181840152602081019050610b4f565b50505050905090810190601f168015610b975780820380516001836020036101000a031916815260200191505b509250505060405180910390a25050565b610bb06110b7565b610bb86110b7565b600080610bc36110b7565b6000600454604051805910610bd55750595b9080825280602002602001820160405250945060009350600192505b60045483111515610c7557600015156003600085815260200190815260200160002060050160009054906101000a900460ff1615151415610c685760036000848152602001908152602001600020600001548585815181101515610c5157fe5b906020019060200201818152505083806001019450505b8280600101935050610bf1565b83604051805910610c835750595b90808252806020026020018201604052509150600090505b83811015610ce4578481815181101515610cb157fe5b906020019060200201518282815181101515610cc957fe5b90602001906020020181815250508080600101915050610c9b565b819550505050505090565b60045481565b60036020528060005260406000206000915090508060000154908060010160009054906101000a900473ffffffffffffffffffffffffffffffffffffffff1690806002015490806003019080600401908060050160009054906101000a900460ff16908060050160019054906101000a900460ff16905087565b60055481565b60026020528060005260406000206000915090508060000160009054906101000a900473ffffffffffffffffffffffffffffffffffffffff169080600101908060020154905083565b6000600454905090565b6004600081548092919060010191905055503373ffffffffffffffffffffffffffffffffffffffff166000809054906101000a900473ffffffffffffffffffffffffffffffffffffffff1673ffffffffffffffffffffffffffffffffffffffff16141515610e3557600080fd5b60e06040519081016040528060045481526020013373ffffffffffffffffffffffffffffffffffffffff168152602001848152602001838152602001828152602001600015158152602001600015158152506003600060045481526020019081526020016000206000820151816000015560208201518160010160006101000a81548173ffffffffffffffffffffffffffffffffffffffff021916908373ffffffffffffffffffffffffffffffffffffffff160217905550604082015181600201556060820151816003019080519060200190610f13929190611037565b506080820151816004019080519060200190610f30929190611037565b5060a08201518160050160006101000a81548160ff02191690831515021790555060c08201518160050160016101000a81548160ff0219169083151502179055509050503373ffffffffffffffffffffffffffffffffffffffff166004547f1aa30f80616de71c91eb2a3db42d1bcfd3a40e422aebeef121f94bdc6f49c66085856040518083815260200180602001828103825283818151815260200191508051906020019080838360005b83811015610ff7578082015181840152602081019050610fdc565b50505050905090810190601f1680156110245780820380516001836020036101000a031916815260200191505b50935050505060405180910390a3505050565b828054600181600116156101000203166002900490600052602060002090601f016020900481019282601f1061107857805160ff19168380011785556110a6565b828001600101855582156110a6579182015b828111156110a557825182559160200191906001019061108a565b5b5090506110b391906110cb565b5090565b602060405190810160405280600081525090565b6110ed91905b808211156110e95760008160009055506001016110d1565b5090565b905600a165627a7a72305820d717ba0d6c7d781acac3b7c9a53996a95135eb2c6ce8290018d105528fe3f95d0029",
  "source": "pragma solidity 0.4.18;\n\n\ncontract Allowance {\n\n    address owner;\n\n    // Parents section\n    struct Parent {\n        address id;\n        string name;\n    }\n\n    mapping (address => Parent) public parents;\n\n    // Child section\n    struct Child {\n        address id;\n        string name;\n        uint balance;\n    }\n\n    mapping (address => Child) public children;\n\n    // Task section\n    struct Task {\n        uint id;\n        address parent;\n        uint reward;\n        string name;\n        string description;\n        bool completed;\n        bool approved;\n    }\n\n    mapping (uint => Task) public tasks;\n    uint public taskCounter;\n\n    uint256 public maxTokens;\n\n    // Constructor\n    function Allowance() public {\n        owner = msg.sender;\n        maxTokens = 128;\n    }\n\n    // Steps:\n    //  1) Create a pool of tokens for the parent to dole out\n    //  2) Allow parent to create a  list of tasks that child may complete to earn token\n    //   a) Create single tasks\n    //   b) creating recurring tasks\n    //  3) Allow child to mark a task as completed\n    //  4) A parent may verify that a task is completed\n    //  5) Upon agreed-upon completion, token is transferred to child's account\n    //  6) Child may redeem tokens to earn cash, screen time, etc.\n    //  7) Upon redemption, tokens are sent back to parent\n    // Events\n    event LogAddTask(\n        uint indexed _id,\n        address indexed _parent,\n        uint _reward,\n        string _name\n    );\n\n    event LogAddParent(\n        address indexed _parent,\n        string _name\n    );\n\n    event LogAddChild(\n        address indexed _child,\n        string _name\n    );\n\n    // Create a new task\n    function addTask(uint _reward, string _name, string _description) public {\n        taskCounter++;\n\n        // TODO: Need to require that the msg.sender is a parent\n        require(owner == msg.sender);\n\n        tasks[taskCounter] = Task(\n            taskCounter,    // ID\n            msg.sender,     // Parent\n            _reward,        // Reward\n            _name,          // Name\n            _description,   // Description\n            false,          // Completed\n            false           // Approved\n        );\n\n        LogAddTask(taskCounter, msg.sender, _reward, _name);\n    }\n\n    // Get number of tasks\n    function getNumberOfTasks() public view returns (uint) {\n        return taskCounter;\n    }\n\n    // Getting tasks that are available\n    function getAvailableTasks() public view returns (uint[]) {\n        // Setup initial vars\n        uint[] memory taskIDs = new uint[](taskCounter);\n        uint numberOfAvailableTasks = 0;\n\n        // Copy over the Taks IDs if the task is still available \n        //  and increment number of available takss\n        for (uint i = 1; i <= taskCounter; i++) {\n            if (tasks[i].completed == false) {\n                taskIDs[numberOfAvailableTasks] = tasks[i].id;\n                numberOfAvailableTasks++;\n            }\n        }\n\n        // Create an appropriate sized array to return\n        uint[] memory available = new uint[](numberOfAvailableTasks);\n        for (uint j = 0; j < numberOfAvailableTasks; j++) {\n            available[j] = taskIDs[j];\n        }\n\n        return available;\n    }\n\n    // Adding a parent\n    function addParent(address _parent, string _name) public {\n        // For now require parent to be added by owner\n        require(msg.sender == owner);\n\n        parents[_parent] = Parent(\n            _parent,\n            _name\n        );\n        LogAddParent(_parent, _name);\n    }\n\n    // Adding a parent\n    function addChild(address _child, string _name) public {\n        // For now require parent to be added by owner\n        require(msg.sender == owner);\n\n        children[_child] = Child(\n            _child,\n            _name,\n            0\n        );\n        LogAddChild(_child, _name);\n    }\n\n    function markTaskCompleted(uint id) public {\n        require(msg.sender == owner);\n        tasks[id].completed = true;\n    }\n}",
  "sourcePath": "/mnt/c/Users/scjac/Code/github.com/jacksinn/tender_dapp/contracts/Allowance.sol",
  "compiler": {
    "name": "solc",
    "version": "0.4.18+commit.9cf6e910.Emscripten.clang"
  },
  "schemaVersion": "1.0.1",
  "updatedAt": "2018-05-11T03:02:10.434Z"
}