{
  "contractName": "Allowance",
  "abi": [
    {
      "constant": true,
      "inputs": [
        {
          "name": "",
          "type": "address"
        }
      ],
      "name": "parents",
      "outputs": [
        {
          "name": "id",
          "type": "address"
        },
        {
          "name": "name",
          "type": "string"
        }
      ],
      "payable": false,
      "stateMutability": "view",
      "type": "function"
    },
    {
      "constant": true,
      "inputs": [],
      "name": "getUncompletedTasks",
      "outputs": [
        {
          "name": "",
          "type": "uint256[]"
        }
      ],
      "payable": false,
      "stateMutability": "view",
      "type": "function"
    },
    {
      "constant": true,
      "inputs": [],
      "name": "taskCounter",
      "outputs": [
        {
          "name": "",
          "type": "uint256"
        }
      ],
      "payable": false,
      "stateMutability": "view",
      "type": "function"
    },
    {
      "constant": true,
      "inputs": [
        {
          "name": "",
          "type": "uint256"
        }
      ],
      "name": "tasks",
      "outputs": [
        {
          "name": "id",
          "type": "uint256"
        },
        {
          "name": "parent",
          "type": "address"
        },
        {
          "name": "reward",
          "type": "uint256"
        },
        {
          "name": "name",
          "type": "string"
        },
        {
          "name": "description",
          "type": "string"
        },
        {
          "name": "completed",
          "type": "bool"
        },
        {
          "name": "approved",
          "type": "bool"
        }
      ],
      "payable": false,
      "stateMutability": "view",
      "type": "function"
    },
    {
      "constant": true,
      "inputs": [],
      "name": "maxTokens",
      "outputs": [
        {
          "name": "",
          "type": "uint256"
        }
      ],
      "payable": false,
      "stateMutability": "view",
      "type": "function"
    },
    {
      "constant": true,
      "inputs": [
        {
          "name": "",
          "type": "address"
        }
      ],
      "name": "children",
      "outputs": [
        {
          "name": "id",
          "type": "address"
        },
        {
          "name": "name",
          "type": "string"
        },
        {
          "name": "balance",
          "type": "uint256"
        }
      ],
      "payable": false,
      "stateMutability": "view",
      "type": "function"
    },
    {
      "constant": true,
      "inputs": [],
      "name": "getNumberOfTasks",
      "outputs": [
        {
          "name": "",
          "type": "uint256"
        }
      ],
      "payable": false,
      "stateMutability": "view",
      "type": "function"
    },
    {
      "constant": false,
      "inputs": [
        {
          "name": "_reward",
          "type": "uint256"
        },
        {
          "name": "_name",
          "type": "string"
        },
        {
          "name": "_description",
          "type": "string"
        }
      ],
      "name": "addTask",
      "outputs": [],
      "payable": false,
      "stateMutability": "nonpayable",
      "type": "function"
    },
    {
      "inputs": [],
      "payable": false,
      "stateMutability": "nonpayable",
      "type": "constructor"
    },
    {
      "anonymous": false,
      "inputs": [
        {
          "indexed": true,
          "name": "_id",
          "type": "uint256"
        },
        {
          "indexed": true,
          "name": "_parent",
          "type": "address"
        },
        {
          "indexed": false,
          "name": "_reward",
          "type": "uint256"
        },
        {
          "indexed": false,
          "name": "_name",
          "type": "string"
        }
      ],
      "name": "LogAddTask",
      "type": "event"
    }
  ],
  "bytecode": "0x6060604052341561000f57600080fd5b336000806101000a81548173ffffffffffffffffffffffffffffffffffffffff021916908373ffffffffffffffffffffffffffffffffffffffff1602179055506080600581905550610b7c806100666000396000f30060606040526004361061008e576000357c0100000000000000000000000000000000000000000000000000000000900463ffffffff16806318b13fb21461009357806352ee8b0f1461019557806358671730146101ff5780638d97767214610228578063e8315742146103c1578063f0018da7146103ea578063f6397fd3146104f3578063fb8820c21461051c575b600080fd5b341561009e57600080fd5b6100ca600480803573ffffffffffffffffffffffffffffffffffffffff169060200190919050506105c5565b604051808373ffffffffffffffffffffffffffffffffffffffff1673ffffffffffffffffffffffffffffffffffffffff168152602001806020018281038252838181546001816001161561010002031660029004815260200191508054600181600116156101000203166002900480156101855780601f1061015a57610100808354040283529160200191610185565b820191906000526020600020905b81548152906001019060200180831161016857829003601f168201915b5050935050505060405180910390f35b34156101a057600080fd5b6101a8610608565b6040518080602001828103825283818151815260200191508051906020019060200280838360005b838110156101eb5780820151818401526020810190506101d0565b505050509050019250505060405180910390f35b341561020a57600080fd5b61021261074f565b6040518082815260200191505060405180910390f35b341561023357600080fd5b6102496004808035906020019091905050610755565b604051808881526020018773ffffffffffffffffffffffffffffffffffffffff1673ffffffffffffffffffffffffffffffffffffffff168152602001868152602001806020018060200185151515158152602001841515151581526020018381038352878181546001816001161561010002031660029004815260200191508054600181600116156101000203166002900480156103285780601f106102fd57610100808354040283529160200191610328565b820191906000526020600020905b81548152906001019060200180831161030b57829003601f168201915b50508381038252868181546001816001161561010002031660029004815260200191508054600181600116156101000203166002900480156103ab5780601f10610380576101008083540402835291602001916103ab565b820191906000526020600020905b81548152906001019060200180831161038e57829003601f168201915b5050995050505050505050505060405180910390f35b34156103cc57600080fd5b6103d46107cf565b6040518082815260200191505060405180910390f35b34156103f557600080fd5b610421600480803573ffffffffffffffffffffffffffffffffffffffff169060200190919050506107d5565b604051808473ffffffffffffffffffffffffffffffffffffffff1673ffffffffffffffffffffffffffffffffffffffff168152602001806020018381526020018281038252848181546001816001161561010002031660029004815260200191508054600181600116156101000203166002900480156104e25780601f106104b7576101008083540402835291602001916104e2565b820191906000526020600020905b8154815290600101906020018083116104c557829003601f168201915b505094505050505060405180910390f35b34156104fe57600080fd5b61050661081e565b6040518082815260200191505060405180910390f35b341561052757600080fd5b6105c3600480803590602001909190803590602001908201803590602001908080601f0160208091040260200160405190810160405280939291908181526020018383808284378201915050505050509190803590602001908201803590602001908080601f01602080910402602001604051908101604052809392919081815260200183838082843782019150505050505091905050610828565b005b60016020528060005260406000206000915090508060000160009054906101000a900473ffffffffffffffffffffffffffffffffffffffff169080600101905082565b610610610a97565b610618610a97565b600080610623610a97565b60006004546040518059106106355750595b9080825280602002602001820160405250945060009350600192505b600454831115156106d557600015156003600085815260200190815260200160002060050160009054906101000a900460ff16151514156106c857600360008481526020019081526020016000206000015485858151811015156106b157fe5b906020019060200201818152505083806001019450505b8280600101935050610651565b836040518059106106e35750595b90808252806020026020018201604052509150600090505b8381101561074457848181518110151561071157fe5b90602001906020020151828281518110151561072957fe5b906020019060200201818152505080806001019150506106fb565b819550505050505090565b60045481565b60036020528060005260406000206000915090508060000154908060010160009054906101000a900473ffffffffffffffffffffffffffffffffffffffff1690806002015490806003019080600401908060050160009054906101000a900460ff16908060050160019054906101000a900460ff16905087565b60055481565b60026020528060005260406000206000915090508060000160009054906101000a900473ffffffffffffffffffffffffffffffffffffffff169080600101908060020154905083565b6000600454905090565b6004600081548092919060010191905055503373ffffffffffffffffffffffffffffffffffffffff166000809054906101000a900473ffffffffffffffffffffffffffffffffffffffff1673ffffffffffffffffffffffffffffffffffffffff1614151561089557600080fd5b60e06040519081016040528060045481526020013373ffffffffffffffffffffffffffffffffffffffff168152602001848152602001838152602001828152602001600015158152602001600015158152506003600060045481526020019081526020016000206000820151816000015560208201518160010160006101000a81548173ffffffffffffffffffffffffffffffffffffffff021916908373ffffffffffffffffffffffffffffffffffffffff160217905550604082015181600201556060820151816003019080519060200190610973929190610aab565b506080820151816004019080519060200190610990929190610aab565b5060a08201518160050160006101000a81548160ff02191690831515021790555060c08201518160050160016101000a81548160ff0219169083151502179055509050503373ffffffffffffffffffffffffffffffffffffffff166004547f1aa30f80616de71c91eb2a3db42d1bcfd3a40e422aebeef121f94bdc6f49c66085856040518083815260200180602001828103825283818151815260200191508051906020019080838360005b83811015610a57578082015181840152602081019050610a3c565b50505050905090810190601f168015610a845780820380516001836020036101000a031916815260200191505b50935050505060405180910390a3505050565b602060405190810160405280600081525090565b828054600181600116156101000203166002900490600052602060002090601f016020900481019282601f10610aec57805160ff1916838001178555610b1a565b82800160010185558215610b1a579182015b82811115610b19578251825591602001919060010190610afe565b5b509050610b279190610b2b565b5090565b610b4d91905b80821115610b49576000816000905550600101610b31565b5090565b905600a165627a7a7230582018747127aa60d274386aa08954dbacca53bd40ad510ed551b8d5d00fb0117d320029",
  "source": "pragma solidity 0.4.18;\n\n\ncontract Allowance {\n\n    address owner;\n\n    // Parents section\n    struct Parent {\n        address id;\n        string name;\n    }\n\n    mapping (address => Parent) public parents;\n\n    // Child section\n    struct Child {\n        address id;\n        string name;\n        uint balance;\n    }\n\n    mapping (address => Child) public children;\n\n    // Task section\n    struct Task {\n        uint id;\n        address parent;\n        uint reward;\n        string name;\n        string description;\n        bool completed;\n        bool approved;\n    }\n\n    mapping (uint => Task) public tasks;\n    uint public taskCounter;\n\n    uint256 public maxTokens;\n\n    // Constructor\n    function Allowance() public {\n        owner = msg.sender;\n        maxTokens = 128;\n    }\n\n    // Steps:\n    //  1) Create a pool of tokens for the parent to dole out\n    //  2) Allow parent to create a  list of tasks that child may complete to earn token\n    //   a) Create single tasks\n    //   b) creating recurring tasks\n    //  3) Allow child to mark a task as completed\n    //  4) A parent may verify that a task is completed\n    //  5) Upon agreed-upon completion, token is transferred to child's account\n    //  6) Child may redeem tokens to earn cash, screen time, etc.\n    //  7) Upon redemption, tokens are sent back to parent\n    // Events\n    event LogAddTask(\n        uint indexed _id,\n        address indexed _parent,\n        uint _reward,\n        string _name\n    );\n\n    // Create a new task\n    function addTask(uint _reward, string _name, string _description) public {\n        taskCounter++;\n\n        // TODO: Need to require that the msg.sender is a parent\n        require(owner == msg.sender);\n\n        tasks[taskCounter] = Task(\n            taskCounter,    // ID\n            msg.sender,     // Parent\n            _reward,        // Reward\n            _name,          // Name\n            _description,   // Description\n            false,          // Completed\n            false           // Approved\n        );\n\n        LogAddTask(taskCounter, msg.sender, _reward, _name);\n    }\n\n    // Get number of tasks\n    function getNumberOfTasks() public view returns (uint) {\n        return taskCounter;\n    }\n\n    // Getting tasks that aren't completed\n    function getUncompletedTasks() public view returns (uint[]) {\n        // Setup initial vars\n        uint[] memory taskIDs = new uint[](taskCounter);\n        uint numberOfAvailableTasks = 0;\n\n        // Copy over the Taks IDs if the task is still available \n        //  and increment number of available takss\n        for (uint i = 1; i <= taskCounter; i++) {\n            if (tasks[i].completed == false) {\n                taskIDs[numberOfAvailableTasks] = tasks[i].id;\n                numberOfAvailableTasks++;\n            }\n        }\n\n        // Create an appropriate sized array to return\n        uint[] memory available = new uint[](numberOfAvailableTasks);\n        for (uint j = 0; j < numberOfAvailableTasks; j++) {\n            available[j] = taskIDs[j];\n        }\n\n        return available;\n    }\n\n    // Add a new parent -- second, third etc\n    // First parent should come from contract creations / msg.sender in constructor\n    // function addParent(address _parent) public {\n    //     parent = _parent;\n    // }\n\n    // Add a new child\n    // function addChild(address _child) public {\n    //     child = _child;\n    // }\n\n    // function markTaskCompleted() public {\n    //     taskCompleted = true;\n    // }\n}",
  "sourcePath": "/Users/steven/Code/jacksinn/allowance/contracts/Allowance.sol",
  "compiler": {
    "name": "solc",
    "version": "0.4.18+commit.9cf6e910.Emscripten.clang"
  },
  "schemaVersion": "1.0.1",
  "updatedAt": "2018-05-10T22:22:32.308Z"
}