{
  "contractName": "Allowance",
  "abi": [
    {
      "constant": false,
      "inputs": [
        {
          "name": "_child",
          "type": "address"
        }
      ],
      "name": "addChild",
      "outputs": [],
      "payable": false,
      "stateMutability": "nonpayable",
      "type": "function"
    },
    {
      "constant": false,
      "inputs": [
        {
          "name": "_task",
          "type": "string"
        }
      ],
      "name": "addTask",
      "outputs": [],
      "payable": false,
      "stateMutability": "nonpayable",
      "type": "function"
    },
    {
      "constant": false,
      "inputs": [
        {
          "name": "_parent",
          "type": "address"
        }
      ],
      "name": "addParent",
      "outputs": [],
      "payable": false,
      "stateMutability": "nonpayable",
      "type": "function"
    }
  ],
  "bytecode": "0x6060604052341561000f57600080fd5b61029d8061001e6000396000f300606060405260043610610057576000357c0100000000000000000000000000000000000000000000000000000000900463ffffffff1680631eee993a1461005c5780636723856214610095578063acf36e53146100f2575b600080fd5b341561006757600080fd5b610093600480803573ffffffffffffffffffffffffffffffffffffffff1690602001909190505061012b565b005b34156100a057600080fd5b6100f0600480803590602001908201803590602001908080601f0160208091040260200160405190810160405280939291908181526020018383808284378201915050505050509190505061016f565b005b34156100fd57600080fd5b610129600480803573ffffffffffffffffffffffffffffffffffffffff16906020019091905050610189565b005b80600160006101000a81548173ffffffffffffffffffffffffffffffffffffffff021916908373ffffffffffffffffffffffffffffffffffffffff16021790555050565b80600390805190602001906101859291906101cc565b5050565b806000806101000a81548173ffffffffffffffffffffffffffffffffffffffff021916908373ffffffffffffffffffffffffffffffffffffffff16021790555050565b828054600181600116156101000203166002900490600052602060002090601f016020900481019282601f1061020d57805160ff191683800117855561023b565b8280016001018555821561023b579182015b8281111561023a57825182559160200191906001019061021f565b5b509050610248919061024c565b5090565b61026e91905b8082111561026a576000816000905550600101610252565b5090565b905600a165627a7a7230582055c50fa16567b9b1f187ea1447cdb92d0e9c4cae7a95c0f44c8da04e0612eaf00029",
  "source": "pragma solidity 0.4.18;\n\ncontract Allowance {\n    address parent;\n    address child;\n\n    uint256 tokens;\n\n    string task;\n\n    // Steps:\n    //  1) Create a pool of tokens for the parent to dole out\n    //  2) Allow parent to create a  list of tasks that child may complete to earn token\n    //   a) Create single tasks\n    //   b) creating recurring tasks\n    //  3) Allow child to mark a task as completed\n    //  4) A parent may verify that a task is completed\n    //  5) Upon agreed-upon completion, token is transferred to child's account\n    //  6) Child may redeem tokens to earn cash, screen time, etc.\n    //  7) Upon redemption, tokens are sent back to parent\n\n    // constructor(uint256 _tokens) public {\n    //     parent = msg.sender;\n    //     tokens = _tokens;\n    // }\n\n    // Allow users to set a finite amount of tokens\n    // Basically how much the parents are willing to provide each week\n    function createAllowanceTokens(uint256 _tokens) private {\n        if(parent == msg.sender){\n            tokens = _tokens;\n        }\n    }\n\n    // Create a new task\n    function addTask(string _task) public {\n        task = _task;\n    }\n\n    // Add a new parent -- second, third etc\n    // First parent should come from contract creations / msg.sender in constructor\n    function addParent(address _parent) public {\n        parent = _parent;\n    }\n\n    // Add a new child\n    function addChild(address _child) public {\n        child = _child;\n    }\n\n    // TODO: Allow multiple parents\n    // TODO: Allow multiple children\n    // TODO: Allow sign-off by 1 to n parents\n}",
  "sourcePath": "/Users/steven/Code/jacksinn/allowance/contracts/Allowance.sol",
  "compiler": {
    "name": "solc",
    "version": "0.4.18+commit.9cf6e910.Emscripten.clang"
  },
  "schemaVersion": "1.0.1",
  "updatedAt": "2018-05-05T22:31:22.311Z"
}